:04000000C2EF00F05B
:10000800FACF03F0FBCF04F0E9CF05F0EACF06F012
:10001800E1CF07F0E2CF08F0D9CF09F0DACF0AF044
:10002800F3CF0BF0F4CF0CF0F6CF0DF0F7CF0EF0C6
:10003800F8CF0FF0F5CF10F09EA652D0C7502D0B79
:10004800136E1350016E026A090E011A000E021A8D
:1000580002500110D8A403D0C9CF11F03FD01350DB
:10006800016E026A290E011A000E021A02500110CE
:10007800D8A41DD0C9CF46F04650800B126E00019F
:1000880046C08CF000018D6B1250800AD8A408D0AD
:100098000001000E00018C13FF0E00018D131ED00D
:1000A800FF0E00018C17000E00018D1717D013509A
:1000B800016E026A0C0E011A000E021A025001109B
:1000C800D8B40AD01350016E026A2C0E011A000E21
:1000D800021A02500110D8B449C0C9FF9E96C688BA
:1000E800A4A409D0B6AA03D03E4A3F2A03D03E06AC
:1000F800D8A03F06A4949EA024D04750000186278C
:100108004850000187234B4A4C2A4B50040A4C1094
:10011800D8A412D03CC001F03DC002F0011E021E5E
:10012800014A022A475001243A6E485002203B6E89
:10013800000E4C6E010E4B6EEC0ECF6E780ECE6E2E
:100148009E9010C0F5FF0FC0F8FF0EC0F7FF0DC05E
:10015800F6FF0CC0F4FF0BC0F3FF0AC0DAFF09C0BA
:10016800D9FF08C0E2FF07C0E1FF06C0EAFF05C0EB
:10017800E9FF04C0FBFF03C0FAFF11002CEF05F0F4
:1001880031C035F0366A376A3034353601E33680A7
:1001980035500001626F34C035F0366A376A33343F
:1001A800353601E3368035500001616F0001625138
:1001B800D8B410D0000161510001625DD8B011D0EF
:1001C80000016251000800016125356E190E355C89
:1001D800D8A007D032C02FF033C030F034C031F08F
:1001E800CBD000016151D8B410D000016251000198
:1001F800615DD8B011D0000161510008000162258D
:10020800356E190E355CD8A007D02FC02FF030C03E
:1002180030F031C031F0B0D0060E0001606F31AE61
:1002280002D00001608F34AE02D00001608D308EA4
:10023800FF0E2F16FF0E3016000E3116338EFF0EEE
:100248003216FF0E3316000E3416000161510001FC
:10025800625DD8B021D0D8903236333634360001BA
:1002680061070001615100016219D8B40FD0000183
:10027800600760C035F0070E3516D8B407D0EBD745
:10028800D890313230322F320001622B0001615197
:1002980000016263F5D726D0000162510001615D5B
:1002A800D8B020D0D8902F363036313600016207CA
:1002B8000001615100016219D8B40FD00001600734
:1002C80060C035F0070E3516D8B407D0EBD7D890F4
:1002D8003432333232320001612B000161510001A6
:1002E8006263F5D7000160AF0CD0FF0E2F1AFF0E26
:1002F800301AFF0E311A010E2F26000E3022000E82
:100308003122000160AD0CD0FF0E321AFF0E331AF5
:10031800FF0E341A010E3226000E3322000E34224C
:10032800000E0001606F2F503226305033223150BA
:10033800342234AE0FD0FF0E321AFF0E331AFF0EDE
:10034800341A010E3226000E3322000E3422010E1A
:100358000001606F32C014F033C015F034C016F0DD
:1003680062C017F060C018F086EC04F014C02FF0DB
:1003780015C030F016C031F01200000EB86EC290F1
:10038800E4EC05F0A9EC05F094EC05F0D0EC05F0F0
:10039800000E936EDBEC05F0929080702AEC04F06E
:1003A800B6BA04D0496C4A1ED8B04A2A49C072F07D
:1003B8004AC073F00001721F731F724B732B000148
:1003C8008C5100017225476E00018D510001732187
:1003D800486ED70E236E230E246E3C0E256E86C003
:1003E8001CF087C01DF053EC05F01CC020F01DC0A8
:1003F80021F01EC022F0B8EC03F020C032F021C07A
:1004080033F022C034F047C014F048C015F0000E95
:10041800176E0D0E166EBDEC05F014C01CF015C05D
:100428001DF053EC05F01CC02FF01DC030F01EC0AD
:1004380031F0C4EC00F02FC063F030C064F031C07C
:1004480065F095EC02F063C072F064C073F065C0AB
:1004580074F066C075F072C076F073C077F0000172
:100468008D51800AF36E800EF35C070ED8B48C5D54
:10047800D8B010D000018D51800A810FFA0ED8B47F
:100488008C5DD8A007D0000E0001796F320E0001F4
:10049800786F1CD076C014F077C015F0000E176E78
:1004A8000A0E166EBDEC05F014C01AF015C01BF04C
:1004B800000E1D6E2D0E1C6EDAEC04F0320E1A249E
:1004C8000001786F000E1B200001796F000179513F
:1004D800800A800F630ED8B4785DD8A006D0000ECD
:1004E8000001796F610E0001786F00017951800A6F
:1004F800F36E800EF35C020ED8B4785DD8B006D0E7
:10050800000E0001796F030E0001786F78C014F0B7
:1005180079C015F077EC05F047C03CF048C03DF0D5
:100528003CD7000165C067F00001686B696B00018A
:1005380064350001673701E36881000167510001F4
:10054800716F0001716701D059D0170E0001676FF4
:10055800000163C068F0000164C069F0000165C073
:100568006AF00001672900016B6F05D00001D8907F
:100578006A336933683300016B2FF8D7000168517B
:1005880000016C6F0001648FFF0E00016317FF0EFE
:1005980000016417000E0001651700016351000196
:1005A8006D6F0001645100016E6F0001655100011B
:1005B8006F6F0001706B8E0E0001715F000171AFEB
:1005C80019D000017151800A0001676FF10E800A8D
:1005D8000001675DD8A012D00001D89000017033E7
:1005E80000016F3300016E3300016D330001713F6C
:1005F800F3D720D0170E0001716519D0000E000145
:10060800636F000E0001646F000E0001656F000E3D
:100618000001666F2AD00001D89000016D370001F3
:100628006E3700016F370001703700017107000154
:100638007167F1D700016C51D8B40FD00001701F59
:1006480000016F1F00016E1F00016D6D000E00019B
:100658006E2300016F23000170236DC063F06EC02C
:1006680064F06FC065F070C066F01200000E1D6E79
:100678001B50800A800F08E1000E1A5C05E1000E8D
:10068800195C02E1000E185CD8B00AD01B1E1A1EB5
:10069800191E186C000E19221A221B22010E1D6E3B
:1006A8001750800A800F08E1000E165C05E1000E65
:1006B800155C02E1000E145CD8B00AD0171E161E95
:1006C800151E146C000E152216221722010E1D1A73
:1006D800000E1E6E000E1F6E000E206E000E216EA4
:1006E8001B50181019101A10D8B42AD0010E1C6EFD
:1006F80006D0D890183619361A361B361C2A1BAE67
:10070800F8D7D8901E361F36203621361850145C7C
:10071800195015581A5016581B501758D8A009D0F8
:100728001850145E1950155A1A50165A1B50175A59
:100738001E80D8901B321A32193218321C2EE1D77B
:100748001D50D8B408D0211E201E1F1E1E6C000E7E
:100758001F22202221221EC014F01FC015F020C025
:1007680016F021C017F0120022C026F0276A286A66
:100778002134263601E327802650296E296601D0C8
:100788000CD025C026F0276A286A2434263601E3CF
:10079800278026502E6E2E6607D0000E206E000E83
:1007A800216E000E226E51D02E507B0F292622C0BA
:1007B8002EF025502E1A800E2E16218E248EFF0E16
:1007C8002316FF0E2416000E2516000E2A6E000EA4
:1007D8002B6E000E2C6E070E2D6E20A006D0235017
:1007E8002A2624502B2225502C22D890223221321E
:1007F8002032D8902336243625362D2EEED7090EF2
:100808002D6E20A006D023502A2624502B222550B6
:100818002C22D890223221322032D8902C322B32FE
:100828002A322D2EEED72AC014F02BC015F02CC07A
:1008380016F029C017F02EC018F086EC04F014C08A
:1008480020F015C021F016C022F0120069CF2AF05E
:100858002B6A68502AC022F02BC023F022C023F054
:10086800226A2226000E232222C026F023C027F067
:10087800000E27BEFF0E286E296E400E146E4B0E1A
:10088800156E4C0E166E000E176E26C018F027C097
:1008980019F028C01AF029C01BF03AEC03F014C074
:1008A80022F015C023F016C024F017C025F022C08E
:1008B8002CF023C02DF0000E1D6E100E1C6E2CC0E7
:1008C8001AF02DC01BF0DAEC04F01AC014F01BC0AB
:1008D80015F0000E176E3C0E166EBDEC05F014C038
:1008E8002EF015C02FF02EC01AF02FC01BF0000EEE
:1008F8001D6E320E1C6EDAEC04F01AC049F01BC0F3
:100908004AF012001750D8B405D01450151016101C
:10091800D8A40CD0000E146E000E156E000E166EC4
:1009280044D0172AD890163215321432000E1414F7
:10093800196E000E15141A6EFE0E16141B6E195041
:100948001A101B10D8B40CD0ECD7172A010E142695
:10095800000E1522000E1622D890163215321432C7
:10096800000E1414196E000E15141A6EFF0E1614CC
:100978001B6E19501A101B10D8B406D0E6D71706EC
:10098800D89014361536163615AEF9D717A0159E19
:10099800D8901732175016121850D8A4168E14C0B3
:1009A80014F015C015F016C016F01200000E1F6ED8
:1009B8001D50800AF36E800EF35C000ED8B41C5CE8
:1009C800D8B006D01C6C1D1ED8B01D2A010E1F6E93
:1009D8001B50800AF36E800EF35C000ED8B41A5CCC
:1009E800D8B006D01A6C1B1ED8B01B2A010E1F1ACD
:1009F800000E216E000E206E1D501C10D8B41CD0A5
:100A0800010E1E6E04D0D8901C361D361E2A1DAE4F
:100A1800FAD7D890203621361C501A5C1D501B5826
:100A2800D8A005D01C501A5E1D501B5A2080D890A3
:100A38001D321C321E2EEDD71F50D8B404D0206CA6
:100A4800211ED8B0212A20C01AF021C01BF01200A4
:100A580000EE7AF0120EEE6AE806FDE100EE38F0DC
:100A6800110EEE6AE806FDE1D40EF66E0B0EF76E77
:100A7800000EF86E0900F5CF8CF00900F5CF8DF067
:100A8800D20EF66E0B0EF76E000EF86E0900F5CF5B
:100A98004BF00900F5CF4CF00001C1EF01F0000E5A
:100AA8001F6E1D50800AF36E800EF35C000ED8B4E2
:100AB8001C5CD8B006D01C6C1D1ED8B01D2A010EB7
:100AC8001F6E1CC014F01DC015F0166A8E0E176E2E
:100AD8001FC018F086EC04F014C01CF015C01DF0FF
:100AE80016C01EF01200D8901434196E15341A6E00
:100AF80019C016F01AC017F0D89016361736D890C5
:100B08001636173616C019F017C01AF019C079FF33
:100B18001AC016F016C017F0186A1750786E12002F
:100B280093909392000E7C6E000E7D6E000E7A6E8E
:100B3800C80E7B6E810E6D6E5C0E6F6E000E6E6E53
:100B4800000E7F6E800E7E6E120092869288310EA5
:100B5800606E190EB66E65686468000E676E000EEA
:100B6800666E000E886E000E876E010EB76E638C7F
:100B7800120014501602F3CF18F0F4CF19F01450E5
:100B88001702F350192615501602F350192618C0EB
:100B980014F019C015F01200F28C9D869E96300E46
:100BA800946EC7503E0EC66E040EC86E1200EC0E50
:100BB800CF6E780ECE6E9D809E90810ECD6E120007
:0E0BC800F28EF28CA384A450120001004600AD
:020000040020DA
:08000000FFFFFFFFFFFFFFFF00
:020000040030CA
:0E000000FFC20D3E3C9D81FF0FC00FE00F4080
:00000001FF
