:040000005BEF2EF094
:105818000402C5CF01F01F0E0116D8B4C7B4F9D7DA
:105828001200026E3F0EC716000EC66E000EC56E41
:105838000250C6120150C71293829380C68A120082
:10584800066E06380F0B0F0B836E82908284000E53
:10585800026E010E016E6BEC2CF08294120009C0EE
:1058680001F00AC002F0036A8E0E046E000E056E87
:1058780018EC30F001C009F002C00AF003C00BF0C8
:1058880012007F0E2C142B102A10D8B406D0000E4C
:105898002A1A000E2B1A800E2C1A2AC02AF02BC0A6
:1058A8002BF02CC02CF0120001500302F3CF05F0AE
:1058B800F4CF06F001500402F3500626025003020A
:1058C800F350062605C001F006C002F01200080ECB
:1058D800D56E000E056E010E046E0AD0D768FE0E56
:1058E800D66ED58EF2A4FED7D59EF294044A052A28
:1058F8000250800A036E0450015C0550800A035868
:10590800D8A01200EBD7080ED56E000E056E010E5A
:10591800046E0BD0FE0ED76E0C0ED66ED58EF2A48A
:10592800FED7D59EF294044A052A0250800A036ED7
:105938000450015C0550800A0358D8A01200EAD729
:105948003B50800A800F05E1000E3A5C02E1000E30
:10595800395CD8B006D0000E3C6E000E3D6E000ECD
:1059680005D0000E3C6E800E3D6E3F0E3E6E3CC074
:1059780039F03DC03AF03EC03BF01200066E0638E2
:105988000F0B0F0B836E82908284000E026E010E45
:10599800016E6BEC2CF0829406500F0B836E829094
:1059A8008284000E026E010E016E6BEC2CF0829464
:1059B800000E026E290E016E6BEC2CF01200066EC2
:1059C80006380F0B0F0B836E82808284000E026EE6
:1059D800010E016E6BEC2CF0829406500F0B836E57
:1059E80082808284000E026E010E016E6BEC2CF038
:1059F8008294000E026E290E016E6BEC2CF01200E0
:105A0800000E0C6E0A50800AF36E800EF35C000ED6
:105A1800D8B4095CD8B006D0096C0A1ED8B00A2AD6
:105A2800010E0C6E09C001F00AC002F0036A8E0E66
:105A3800046E0CC005F018EC30F001C009F002C08B
:105A48000AF003C00BF012000DC001F00EC002F006
:105A58000FC003F00AC004F00BC005F00CC006F03C
:105A6800E2EC2EF0D8A007D00AC010F00BC011F05D
:105A78000CC012F006D00DC010F00EC011F00FC00F
:105A880012F010C00AF011C00BF012C00CF0120096
:105A9800939492809396928293989588939A958AF4
:105AA800939C958C939E958E8194809081968092FC
:105AB80081988398819A839A819C839C819E839EF6
:105AC800B00ECD6E480EB16E000ECF6E000ECE6ECB
:105AD800000EC26E0F0EC16E12000020420020425E
:105AE80000204200204100204200204200204100C6
:105AF800204100204200F04100204200204200A046
:105B08004100204200204200204100A041002042E4
:105B180000A04100204200204200A041004842006D
:105B2800484200A041004842007042002041002045
:105B38004100204100204200204100204100204235
:105B480000204100204100A04100204100204100E8
:105B5800204200204200A0410020420020420020B4
:105B68004200A0410020410020410020420048425C
:105B78000048420020420048420070420DEC2CF0E0
:105B8800C580C5B0FED70DEC2CF00001E751ECEC58
:105B98002DF00DEC2CF00450ECEC2DF00DEC2CF06D
:105BA800C584C5B4FED70DEC2CF0C580C5B0FED7B2
:105BB8000DEC2CF05F50ECEC2DF00DEC2CF00650B9
:105BC800ECEC2DF00DEC2CF0C584C5A41200FDD72B
:105BD800036E03C0C9FFC6BE2CD0C6CF02F00F0E9D
:105BE80002160250080AD8B40FD0C6CF02F00F0E22
:105BF800021602500B0AD8B407D0C6889EA6FED754
:105C0800C7B417D0C75015D0C6CF02F00F0E021672
:105C18000250080AD8B408D0C6CF02F00F0E0216F8
:105C280002500B0AD8A405D0C7B0FED70DEC2CF053
:105C3800C55012000C6E0CC001F0026A000E046E12
:105C4800640E036E73EC2FF00150096E0950640D59
:105C5800F35000080C240D6E0DC001F0026A000E0E
:105C6800046E0A0E036E73EC2FF001500A6E0A5090
:105C78000A0DF35000080D240B6E000E0F6E000E77
:105C88000E6E0F50800A800F030ED8B40E5CD8B089
:105C98000DD0090E0E24D96E000E0F20DA6EDF50DB
:105CA800300FE3EC2CF00E4A0F2AEBD7120001EE6E
:105CB80000F0A20EEE6AE806FDE100EE60F0560E76
:105CC800EE6AE806FDE1E20EF66E5A0EF76E000E79
:105CD800F86E02EE00F010EE51F00900F5CFEEFF7D
:105CE800E550E150FAE1330EF66E5B0EF76E000EEA
:105CF800F86E01EEA2F010EE51F00900F5CFEEFFBC
:105D0800E550E150FAE1180EF66E580EF76E000EE7
:105D1800F86E0900F5CFE7F0190EF66E580EF76E1B
:105D2800000EF86E0900F5CF5FF000019EEF34F029
:105D3800000E956E000E946E82928294000E026E92
:105D4800C80E016E87EC2CF0300E24EC2CF0000EFF
:105D5800026E500E016E87EC2CF0300E24EC2CF005
:105D6800000E026E010E016E87EC2CF0300E24EC52
:105D78002CF0000E026E290E016E87EC2CF0200E1E
:105D880024EC2CF0000E026E640E016E87EC2CF0F1
:105D98000E0EC2EC2CF0010EC2EC2CF0000E026EBE
:105DA800110E016E87EC2CF0060EC2EC2CF0280EBA
:105DB800C2EC2CF0800EC2EC2CF0120003AE16D010
:105DC80001C007F002C008F003C009F0071E081E52
:105DD800091E072A000E08220922000E0724016E58
:105DE800000E0820026E800E0920036E06AE16D043
:105DF80004C007F005C008F006C009F0071E081E19
:105E0800091E072A000E08220922000E0724046E24
:105E1800000E0820056E800E0920066E000E011A7D
:105E2800000E021A800E031A000E041A000E051A3C
:105E3800800E061A0450015C05500258065003589B
:105E4800D8B002D0D89001D0D8801200B3EC31F08D
:105E58002DEC32F0AAEC32F027EC33F0A4EC33F05E
:105E680021EC34F084C00AF085C00BF086C00CF039
:105E780087C00DF088C00EF089C00FF028EC2DF017
:105E88000AC09FF00BC0A0F00CC0A1F08AC00AF0B5
:105E98008BC00BF08CC00CF08DC00DF08EC00EF0D6
:105EA8008FC00FF028EC2DF00AC099F00BC09AF0C3
:105EB8000CC09BF090C00AF091C00BF092C00CF09F
:105EC80093C00DF094C00EF095C00FF028EC2DF0A3
:105ED8000AC09CF00BC09DF00CC09EF01200000E92
:105EE800066E0450800AF36E800EF35C000ED8B480
:105EF800035CD8B006D0036C041ED8B0042A010E87
:105F0800066E0250800AF36E800EF35C000ED8B461
:105F1800015CD8B006D0016C021ED8B0022A010E6E
:105F2800061A000E086E000E076E04500310D8B44F
:105F38001CD0010E056E04D0D89003360436052A0D
:105F480004AEFAD7D890073608360350015C0450DF
:105F58000258D8A005D00350015E0450025A0780A9
:105F6800D89004320332052EEDD70650D8B404D0A9
:105F7800076C081ED8B0082A07C001F008C002F054
:105F880012003CC030F03DC031F03EC032F0000E8F
:105F98001E6E000E1F6E400E206E3CC00FF03DC0FE
:105FA80010F03EC011F03CC00CF03DC00DF03EC0FA
:105FB8000EF041EC31F00CC01BF00DC01CF00EC00F
:105FC8001DF0D6EC30F01BC02AF01CC02BF01DC011
:105FD8002CF045EC2CF02AC02DF02BC02EF02CC054
:105FE8002FF008EC36F02DC042F02EC043F02FC041
:105FF80044F042C00CF043C00DF044C00EF039C06C
:106008000FF03AC010F03BC011F041EC31F00CC079
:106018003FF00DC040F00EC041F03FC039F040C025
:106028003AF041C03BF012000450D8B405D00150FA
:1060380002100310D8A40CD0000E016E000E026EE0
:10604800000E036E44D0042AD89003320232013283
:10605800000E0114066E000E0214076EFE0E0314E5
:10606800086E065007100810D8B40CD0ECD7042AD4
:10607800010E0126000E0222000E0322D8900332E0
:1060880002320132000E0114066E000E0214076E71
:10609800FF0E0314086E065007100810D8B406D077
:1060A800E6D70406D89001360236033602AEF9D791
:1060B80004A0029ED8900432045003120550D8A4BC
:1060C800038E01C001F002C002F003C003F0120009
:1060D80003C005F0066A076A0234053601E3068044
:1060E80005500F6E0F6601D038D0170E056E01C02F
:1060F80006F002C007F003C008F00528096E04D0B6
:10610800D890083207320632092EFAD706500A6E9E
:10611800028EFF0E0116FF0E0216000E0316015026
:106128000B6E02500C6E03500D6E0E6A8E0E0F5ED3
:106138000FAE10D00F50800A056EF10E800A055C74
:10614800D8A00BD0D8900E320D320C320B320F3E45
:10615800F9D714D0170E0F640FD0000E016E000E81
:10616800026E000E036E000E046E1BD0D8900B3624
:106178000C360D360E360F060F66F8D70A50D8B40F
:1061880008D00E1E0D1E0C1E0B6C000E0C220D22CC
:106198000E220BC001F00CC002F00DC003F00EC0BF
:1061A80004F012001DC021F0226A236A1C34213633
:1061B80001E322802150286E286601D00CD020C02F
:1061C80021F0226A236A1F34213601E322802150FC
:1061D800296E296607D0000E1B6E000E1C6E000E7D
:1061E8001D6E4AD0000E256E000E266E000E276E1C
:1061F8002950890F285E1DC029F02050291A800EC9
:1062080029161C8EFF0E1B16FF0E1C16000E1D16DF
:106218001F8EFF0E1E16FF0E1F16000E2016180EDC
:10622800246ED8902536263627361E501B5C1F5004
:106238001C5820501D58D8A007D01E501B5E1F5058
:106248001C5A20501D5A2580D8901B361C361D36E6
:10625800242EE7D725C001F026C002F027C003F09E
:1062680028C004F029C005F018EC30F001C01BF07C
:1062780002C01CF003C01DF012000EC012F0136A19
:10628800146A0D34123601E313801250156E156628
:1062980001D00CD011C012F0136A146A10341236EF
:1062A80001E3138012501A6E1A6607D0000E0C6EA6
:1062B800000E0D6E000E0E6E51D01A507B0F152673
:1062C8000EC01AF011501A1A800E1A160D8E108E62
:1062D800FF0E0F16FF0E1016000E1116000E166E8A
:1062E800000E176E000E186E070E196E0CA006D061
:1062F8000F5016261050172211501822D8900E321F
:106308000D320C32D8900F3610361136192EEED7C2
:10631800090E196E0CA006D00F5016261050172221
:1063280011501822D8900E320D320C32D8901832F3
:1063380017321632192EEED716C001F017C002F028
:1063480018C003F015C004F01AC005F018EC30F0BE
:1063580001C00CF002C00DF003C00EF01200000ED8
:10636800CF6E000ECE6E000E3E6E000E3D6E818426
:10637800190EE82EFED7819480A0FED7CD8004D0D8
:10638800CECF3DF0CFCF3EF080A008D03E50800A5F
:10639800640FB90ED8B43D5CD8A0F2D7CD90D30E17
:1063A8000F6EDE0E106E3C0E116ECECF09F0CFCF01
:1063B8000AF033EC2CF009C00CF00AC00DF00BC049
:1063C8000EF041EC31F00CC02DF00DC02EF00EC0D7
:1063D8002FF0E70E306E8B0E316E3F0E326E08ECEA
:1063E80036F02DC084F02EC085F02FC086F084C012
:1063F80001F085C002F086C003F0000E046E000EA6
:10640800056E400E066EE2EC2EF0D8B00DD0A8C096
:1064180009F0A9C00AF004EC2DF009C084F00AC004
:1064280085F00BC086F014D084C001F085C002F05E
:1064380086C003F06CEC30F001C039F002C03AF0CD
:1064480003C03BF004C03CF039C0A8F03AC0A9F042
:106458001200000ECF6E000ECE6E000E3E6E000EC5
:106468003D6E8186000E026E0F0E016E6BEC2CF0F5
:10647800819680A2FED7CD8004D0CECF3DF0CFCF7D
:106488003EF080A208D03E50800A640FB90ED8B4FE
:106498003D5CD8A0F2D7CD90D30E0F6EDE0E106EF5
:1064A8003C0E116ECECF09F0CFCF0AF033EC2CF0B2
:1064B80009C00CF00AC00DF00BC00EF041EC31F031
:1064C8000CC02DF00DC02EF00EC02FF0E70E306E70
:1064D8008B0E316E3F0E326E08EC36F02DC087F011
:1064E8002EC088F02FC089F087C001F088C002F064
:1064F80089C003F0000E046E000E056E400E066E95
:10650800E2EC2EF0D8B00DD0AAC009F0ABC00AF06A
:1065180004EC2DF009C087F00AC088F00BC089F0A0
:1065280014D087C001F088C002F089C003F06CEC79
:1065380030F001C039F002C03AF003C03BF004C0AB
:106548003CF039C0AAF03AC0ABF01200000ECF6E92
:10655800000ECE6E000E3E6E000E3D6E8188000E5F
:10656800026E0F0E016E6BEC2CF0819883A8FED79B
:10657800CD8004D0CECF3DF0CFCF3EF083A808D059
:106588003E50800A640FB90ED8B43D5CD8A0F2D74B
:10659800CD90D30E0F6EDE0E106E3C0E116ECECF68
:1065A80009F0CFCF0AF033EC2CF009C00CF00AC088
:1065B8000DF00BC00EF041EC31F00CC02DF00DC009
:1065C8002EF00EC02FF0E70E306E8B0E316E3F0EA0
:1065D800326E08EC36F02DC08AF02EC08BF02FC03A
:1065E8008CF08AC001F08BC002F08CC003F0000E62
:1065F800046E000E056E400E066EE2EC2EF0D8B06A
:106608000DD0ACC009F0ADC00AF004EC2DF009C003
:106618008AF00AC08BF00BC08CF014D08AC001F04D
:106628008BC002F08CC003F06CEC30F001C039F084
:1066380002C03AF003C03BF004C03CF039C0ACF0F3
:106648003AC0ADF01200000ECF6E000ECE6E000EF6
:106658003E6E000E3D6E818A000E026E0F0E016EB8
:106668006BEC2CF0819A83AAFED7CD8004D0CECFD4
:106678003DF0CFCF3EF083AA08D03E50800A640F89
:10668800B90ED8B43D5CD8A0F2D7CD90D30E0F6E1A
:10669800DE0E106E3C0E116ECECF09F0CFCF0AF091
:1066A80033EC2CF009C00CF00AC00DF00BC00EF052
:1066B80041EC31F00CC02DF00DC02EF00EC02FF0C3
:1066C800E70E306E8B0E316E3F0E326E08EC36F0F0
:1066D8002DC08DF02EC08EF02FC08FF08DC001F030
:1066E8008EC002F08FC003F0000E046E000E056E1F
:1066F800400E066EE2EC2EF0D8B00DD0AEC009F018
:10670800AFC00AF004EC2DF009C08DF00AC08EF07D
:106718000BC08FF014D08DC001F08EC002F08FC076
:1067280003F06CEC30F001C039F002C03AF003C05D
:106738003BF004C03CF039C0AEF03AC0AFF01200F4
:10674800000ECF6E000ECE6E000E3E6E000E3D6E39
:10675800818C000E026E0F0E016E6BEC2CF0819C8A
:1067680083ACFED7CD8004D0CECF3DF0CFCF3EF066
:1067780083AC08D03E50800A640FB90ED8B43D5C93
:10678800D8A0F2D7CD90D30E0F6EDE0E106E3C0E51
:10679800116ECECF09F0CFCF0AF033EC2CF009C040
:1067A8000CF00AC00DF00BC00EF041EC31F00CC03B
:1067B8002DF00DC02EF00EC02FF0E70E306E8B0EB0
:1067C800316E3F0E326E08EC36F02DC090F02EC0C0
:1067D80091F02FC092F090C001F091C002F092C0E9
:1067E80003F0000E046E000E056E400E066EE2EC1D
:1067F8002EF0D8B00DD0B0C009F0B1C00AF004EC4A
:106808002DF009C090F00AC091F00BC092F014D09E
:1068180090C001F091C002F092C003F06CEC30F02F
:1068280001C039F002C03AF003C03BF004C03CF0AC
:1068380039C0B0F03AC0B1F01200000ECF6E000EB1
:10684800CE6E000E3E6E000E3D6E818E000E026E04
:106858000F0E016E6BEC2CF0819E83AEFED7CD80BF
:1068680004D0CECF3DF0CFCF3EF083AE08D03E501F
:10687800800A640FB90ED8B43D5CD8A0F2D7CD9089
:10688800D30E0F6EDE0E106E3C0E116ECECF09F0D9
:10689800CFCF0AF033EC2CF009C00CF00AC00DF091
:1068A8000BC00EF041EC31F00CC02DF00DC02EF0F5
:1068B8000EC02FF0E70E306E8B0E316E3F0E326E2B
:1068C80008EC36F02DC093F02EC094F02FC095F050
:1068D80093C001F094C002F095C003F0000E046E5E
:1068E800000E056E400E066EE2EC2EF0D8B00DD00C
:1068F800B2C009F0B3C00AF004EC2DF009C093F05F
:106908000AC094F00BC095F014D093C001F094C065
:1069180002F095C003F06CEC30F001C039F002C011
:106928003AF003C03BF004C03CF039C0B2F03AC0C2
:10693800B3F01200000E5E6E280E5D6E000E0001B0
:10694800E66F140E0001E56F000E936E9CEC2EF0BE
:106958004CEC2DF0800E016E080E15EC2CF0310E6B
:10696800C86E2AEC2FF0800EC2EC2CF09CC001F00F
:106978009DC002F09EC003F06CEC30F001C0E1F065
:1069880002C0E2F003C0E3F004C0E4F00001E1510A
:106998001EEC2EF0840EC2EC2CF099C001F09AC0C7
:1069A80002F09BC003F06CEC30F001C0E1F002C0D3
:1069B800E2F003C0E3F004C0E4F00001E1511EEC92
:1069C8002EF0880EC2EC2CF09FC001F0A0C002F09F
:1069D800A1C003F06CEC30F001C0E1F002C0E2F0BD
:1069E80003C0E3F004C0E4F00001E1511EEC2EF016
:1069F80007EC38F07BEC3BF07BC001F07CC002F088
:106A08007DC003F06CEC30F001C0E1F002C0E2F0B0
:106A180003C0E3F004C0E4F0E1C0A2F0E2C0A3F0D8
:106A28007EC001F07FC002F080C003F06CEC30F053
:106A380001C0E1F002C0E2F003C0E3F004C0E4F0FA
:106A4800E1C0A4F0E2C0A5F0A2C004F0A3C005F024
:106A5800A4C006F0A5C007F0C2EC2DF0C30EC2EC2E
:106A68002CF00001A2511EEC2EF0CA0EC2EC2CF044
:106A78000001A4511EEC2EF074D742C030F043C080
:106A880031F044C032F03FC02AF040C02BF041C082
:106A98002CF045EC2CF02AC02DF02BC02EF02CC089
:106AA8002FF008EC36F02DC01EF02EC01FF02FC0BE
:106AB80020F03FC030F040C031F041C032F045C056
:106AC8002AF046C02BF047C02CF045EC2CF02AC029
:106AD8002DF02BC02EF02CC02FF008EC36F02DC076
:106AE8001BF02EC01CF02FC01DF0D6EC30F01BC0E0
:106AF8004BF01CC04CF01DC04DF045C030F046C0F6
:106B080031F047C032F042C02AF043C02BF044C0F5
:106B18002CF045EC2CF02AC02DF02BC02EF02CC008
:106B28002FF008EC36F02DC039F02EC03AF02FC007
:106B38003BF0A4EC2CF039C04EF03AC04FF03BC00B
:106B480050F045C030F046C031F047C032F03FC089
:106B58002AF040C02BF041C02CF045EC2CF02AC0A4
:106B68002DF02BC02EF02CC02FF008EC36F02DC0E5
:106B780039F02EC03AF02FC03BF0A4EC2CF039C00D
:106B880051F03AC052F03BC053F0000E306E800E08
:106B9800316E3F0E326E4BC02DF04CC02EF04DC002
:106BA8002FF008EC36F02DC00CF02EC00DF02FC0E1
:106BB8000EF04EC02AF04FC02BF050C02CF045EC20
:106BC8002CF02AC030F02BC031F02CC032F051C06C
:106BD8002DF052C02EF053C02FF008EC36F02DC027
:106BE8000FF02EC010F02FC011F041EC31F00CC0A6
:106BF80048F00DC049F00EC04AF048C03FF049C007
:106C080040F04AC041F012002FC033F0346A356AB0
:106C18002E34333601E334803350386E32C033F0CB
:106C2800346A356A3134333601E334803350376E91
:106C38003850D8B40CD03750385CD8B00FD0385052
:106C480000083724336E190E335CD8A007D030C043
:106C58002DF031C02EF032C02FF0ABD03750D8B461
:106C68000CD03850375CD8B00FD0375000083824D3
:106C7800336E190E335CD8A007D02DC02DF02EC06E
:106C88002EF02FC02FF095D0060E366E2FBE368E02
:106C980032BE368C2E8EFF0E2D16FF0E2E16000ECF
:106CA8002F16318EFF0E3016FF0E3116000E3216DB
:106CB8003750385CD8B01AD0D890303631363236A2
:106CC800370637503818D8B40DD0360636C033F0EA
:106CD800070E3316D8B406D0EFD7D8902F322E32FD
:106CE8002D32382A37503862F8D71DD03850375CE3
:106CF800D8B019D0D8902D362E362F3638063750C2
:106D08003818D8B40DD0360636C033F0070E33160F
:106D1800D8B406D0EFD7D890323231323032372A51
:106D280037503862F8D736AE0CD0FF0E2D1AFF0E4A
:106D38002E1AFF0E2F1A010E2D26000E2E22000EDF
:106D48002F2236AC0CD0FF0E301AFF0E311AFF0E70
:106D5800321A010E3026000E3122000E3222000EA9
:106D6800366E2D5030262E5031222F50322232AE20
:106D78000ED0FF0E301AFF0E311AFF0E321A010E16
:106D88003026000E3122000E3222010E366E30C03F
:106D980001F031C002F032C003F038C004F036C050
:106DA80005F018EC30F001C02DF002C02EF003C041
:106DB8002FF0120045C030F046C031F047C032F025
:106DC80042C02AF043C02BF044C02CF045EC2CF014
:106DD8002AC02DF02BC02EF02CC02FF008EC36F076
:106DE8002DC039F02EC03AF02FC03BF0A4EC2CF0A7
:106DF80039C04BF03AC04CF03BC04DF045C030F0C4
:106E080046C031F047C032F03FC02AF040C02BF0F6
:106E180041C02CF045EC2CF02AC02DF02BC02EF0F0
:106E28002CC02FF008EC36F02DC039F02EC03AF007
:106E38002FC03BF0A4EC2CF039C04EF03AC04FF014
:106E48003BC050F042C030F043C031F044C032F093
:106E58003FC02AF040C02BF041C02CF045EC2CF08C
:106E68002AC02DF02BC02EF02CC02FF008EC36F0E5
:106E78002DC01EF02EC01FF02FC020F03FC01BF009
:106E880040C01CF041C01DF0D6EC30F01BC051F0E2
:106E98001CC052F01DC053F045C00FF046C010F0A2
:106EA80047C011F042C030F043C031F044C032F066
:106EB8003FC02AF040C02BF041C02CF045EC2CF02C
:106EC8002AC02DF02BC02EF02CC02FF008EC36F085
:106ED8002DC01EF02EC01FF02FC020F0000E1B6E1C
:106EE800800E1C6E3F0E1D6ED6EC30F01BC00CF0F1
:106EF8001CC00DF01DC00EF041EC31F00CC054F078
:106F08000DC055F00EC056F04BC02AF04CC02BF007
:106F18004DC02CF045EC2CF02AC030F02BC031F0DD
:106F28002CC032F04EC02DF04FC02EF050C02FF0C4
:106F380008EC36F02DC00FF02EC010F02FC011F065
:106F480051C02AF052C02BF053C02CF045EC2CF065
:106F58002AC030F02BC031F02CC032F054C02DF0D4
:106F680055C02EF056C02FF008EC36F02DC00CF0AE
:106F78002EC00DF02FC00EF041EC31F00CC057F0D0
:106F88000DC058F00EC059F045C030F046C031F081
:106F980047C032F042C02AF043C02BF044C02CF066
:106FA80045EC2CF02AC02DF02BC02EF02CC02FF071
:106FB80008EC36F02DC039F02EC03AF02FC03BF067
:106FC800A4EC2CF039C05AF03AC05BF03BC05CF03E
:106FD80057C02DF058C02EF059C02FF05AC030F0CD
:106FE8005BC031F05CC032F008EC36F02DC048F0E0
:106FF8002EC049F02FC04AF048C03FF049C040F0C9
:107008004AC041F01200000E3F6E000E406E000EA6
:10701800416E5DC009F05EC00AF004EC2DF009C0B5
:1070280042F00AC043F00BC044F099C045F09AC042
:1070380046F09BC047F041EC35F03FC060F040C0DF
:1070480061F041C062F0000E3F6E000E406E000E0F
:10705800416E5DC009F05EC00AF004EC2DF009C075
:1070680042F00AC043F00BC044F0D8905D34096E7A
:107078005E340A6E04EC2DF009C045F00AC046F0F3
:107088000BC047F099C048F09AC049F09BC04AF03D
:1070980064EC39F03FC063F040C064F041C065F073
:1070A8005DC009F05EC00AF004EC2DF009C03FF0A5
:1070B8000AC040F00BC041F0D8905D34096E5E34D0
:1070C8000A6E04EC2DF009C042F00AC043F00BC070
:1070D80044F099C045F09AC046F09BC047F0DEECFA
:1070E80036F03FC066F040C067F041C068F0000E5F
:1070F8003F6E000E406E000E416E5DC009F05EC02E
:107108000AF004EC2DF009C042F00AC043F00BC0AD
:1071180044F09CC045F09DC046F09EC047F041EC4D
:1071280035F03FC069F040C06AF041C06BF0000E16
:107138003F6E000E406E000E416E5DC009F05EC0ED
:107148000AF004EC2DF009C042F00AC043F00BC06D
:1071580044F0D8905D34096E5E340A6E04EC2DF06C
:1071680009C045F00AC046F00BC047F09CC048F083
:107178009DC049F09EC04AF064EC39F03FC06CF005
:1071880040C06DF041C06EF05DC009F05EC00AF00D
:1071980004EC2DF009C03FF00AC040F00BC041F0EC
:1071A800D8905D34096E5E340A6E04EC2DF009C087
:1071B80042F00AC043F00BC044F09CC045F09DC0AB
:1071C80046F09EC047F0DEEC36F03FC06FF040C09E
:1071D80070F041C071F0000E3F6E000E406E000E60
:1071E800416E5DC009F05EC00AF004EC2DF009C0E4
:1071F80042F00AC043F00BC044F09FC045F0A0C065
:1072080046F0A1C047F041EC35F03FC072F040C0F5
:1072180073F041C074F0000E3F6E000E406E000E19
:10722800416E5DC009F05EC00AF004EC2DF009C0A3
:1072380042F00AC043F00BC044F0D8905D34096EA8
:107248005E340A6E04EC2DF009C045F00AC046F021
:107258000BC047F09FC048F0A0C049F0A1C04AF059
:1072680064EC39F03FC075F040C076F041C077F06B
:107278005DC009F05EC00AF004EC2DF009C03FF0D3
:107288000AC040F00BC041F0D8905D34096E5E34FE
:107298000A6E04EC2DF009C042F00AC043F00BC09E
:1072A80044F09FC045F0A0C046F0A1C047F0DEEC16
:1072B80036F03FC078F040C079F041C07AF0120053
:1072C80045C030F046C031F047C032F042C02AF025
:1072D80043C02BF044C02CF045EC2CF02AC02DF014
:1072E8002BC02EF02CC02FF008EC36F02DC01EF06D
:1072F8002EC01FF02FC020F0000E0F6E800E106EF3
:107308003F0E116E42C00CF043C00DF044C00EF0A9
:1073180041EC31F00CC01BF00DC01CF00EC01DF08C
:10732800D6EC30F01BC0BCF01CC0BDF01DC0BEF0D8
:1073380048C00FF049C010F04AC011F045C030F005
:1073480046C031F047C032F042C02AF043C02BF0AB
:1073580044C02CF045EC2CF02AC02DF02BC02EF0A8
:107368002CC02FF008EC36F02DC01EF02EC01FF0F8
:107378002FC020F0000E1B6E800E1C6EBF0E1D6EFF
:10738800D6EC30F01BC00CF01CC00DF01DC00EF088
:1073980041EC31F00CC0CEF00DC0CFF00EC0D0F0F3
:1073A800BCC030F0BDC031F0BEC032F0CEC02DF050
:1073B800CFC02EF0D0C02FF008EC36F02DC0BFF0B3
:1073C8002EC0C0F02FC0C1F048C030F049C031F025
:1073D8004AC032F045C02AF046C02BF047C02CF016
:1073E80045EC2CF02AC02DF02BC02EF02CC02FF02D
:1073F80008EC36F02DC039F02EC03AF02FC03BF023
:10740800A4EC2CF039C0C2F03AC0C3F03BC0C4F0C1
:1074180048C030F049C031F04AC032F042C02AF0CA
:1074280043C02BF044C02CF045EC2CF02AC02DF0C2
:107438002BC02EF02CC02FF008EC36F02DC039F000
:107448002EC03AF02FC03BF0A4EC2CF039C0D1F09C
:107458003AC0D2F03BC0D3F0000E306E800E316ED1
:107468003F0E326EBFC02DF0C0C02EF0C1C02FF04D
:1074780008EC36F02DC00CF02EC00DF02FC00EF029
:10748800C2C02AF0C3C02BF0C4C02CF045EC2CF0CD
:107498002AC030F02BC031F02CC032F0D1C02DF012
:1074A800D2C02EF0D3C02FF008EC36F02DC00FF06C
:1074B8002EC010F02FC011F041EC31F00CC0B9F023
:1074C8000DC0BAF00EC0BBF048C030F049C031F072
:1074D8004AC032F042C02AF043C02BF044C02CF01E
:1074E80045EC2CF02AC02DF02BC02EF02CC02FF02C
:1074F80008EC36F02DC039F02EC03AF02FC03BF022
:10750800A4EC2CF039C0C5F03AC0C6F03BC0C7F0B7
:1075180048C030F049C031F04AC032F03FC02AF0CC
:1075280040C02BF041C02CF045EC2CF02AC02DF0C7
:107538002BC02EF02CC02FF008EC36F02DC039F0FF
:107548002EC03AF02FC03BF0A4EC2CF039C0CEF09E
:107558003AC0CFF03BC0D0F042C030F043C031F069
:1075680044C032F03FC02AF040C02BF041C02CF09C
:1075780045EC2CF02AC02DF02BC02EF02CC02FF09B
:1075880008EC36F02DC01EF02EC01FF02FC020F0E2
:1075980042C00FF043C010F044C011F03FC00CF0DF
:1075A80040C00DF041C00EF041EC31F00CC01BF0B2
:1075B8000DC01CF00EC01DF0D6EC30F01BC0C8F09A
:1075C8001CC0C9F01DC0CAF048C00FF049C010F077
:1075D8004AC011F042C030F043C031F044C032F02C
:1075E8003FC02AF040C02BF041C02CF045EC2CF0F5
:1075F8002AC02DF02BC02EF02CC02FF008EC36F04E
:107608002DC01EF02EC01FF02FC020F0000E1B6EE4
:10761800800E1C6E3F0E1D6ED6EC30F01BC00CF0B9
:107628001CC00DF01DC00EF041EC31F00CC0CBF0C9
:107638000DC0CCF00EC0CDF0C5C02AF0C6C02BF0EE
:10764800C7C02CF045EC2CF02AC030F02BC031F02C
:107658002CC032F0CEC02DF0CFC02EF0D0C02FF00D
:1076680008EC36F02DC00FF02EC010F02FC011F02E
:10767800C8C02AF0C9C02BF0CAC02CF045EC2CF0C9
:107688002AC030F02BC031F02CC032F0CBC02DF026
:10769800CCC02EF0CDC02FF008EC36F02DC00CF089
:1076A8002EC00DF02FC00EF041EC31F00CC0D1F01F
:1076B8000DC0D2F00EC0D3F0D1C02DF0D2C02EF044
:1076C800D3C02FF0B9C030F0BAC031F0BBC032F02F
:1076D80008EC36F02DC0B6F02EC0B7F02FC0B8F0C9
:1076E800B6C03FF0B7C040F0B8C041F01200000E7D
:1076F8000001BC6F000E0001BD6F000E0001BE6FDF
:10770800000E0001CF6F000E0001D06F000E0001C7
:10771800D16FB70E0001D26FD10E0001D36F380EB2
:107728000001D46F000E0001C46F000E0001C36F8A
:107738000001C451800A800F030ED8B4C35DD8B0CD
:10774800B9D0000E0001C66F000E0001C56F000120
:10775800C651800A800F030ED8B4C55DD8B0A6D034
:10776800000E0001C86F000E0001C76F0001C8516C
:10777800800A800F030ED8B4C75DD8B093D0C3C0B9
:1077880001F0C4C002F0000E046E030E036E58EC44
:107798002CF00001600E0124D96E0001000E0220B9
:1077A800DA6EDECF0AF0DECF0BF0DDCF0CF0C5C00D
:1077B80001F0C6C002F0000E046E030E036E58EC12
:1077C8002CF00001720E0124D96E0001000E022077
:1077D800DA6EDECF0DF0DECF0EF0DDCF0FF028EC45
:1077E8002DF00AC0BCF00BC0BDF00CC0BEF0C3C089
:1077F80001F0C4C002F0000E046E1B0E036E58ECBC
:107808002CF0510E456E010E466E01504526025071
:107818004622C5C001F0C6C002F0000E046E090E73
:10782800036E58EC2CF00150452602504622C7C082
:1078380001F0C8C002F0000E046E030E036E58EC8F
:107848002CF001504524D96E02504620DA6EBCC097
:107858000AF0BDC00BF0BEC00CF0C7C001F0C8C034
:1078680002F0000E046E030E036E58EC2CF00001BB
:10787800690E0124E16E0001000E0220E26EE6CFDF
:107888000DF0E6CF0EF0E5CF0FF028EC2DF00AC092
:10789800DEFF0BC0DEFF0CC0DDFFDD520001C74B71
:1078A800C82B64D70001C54BC62B51D70001C34B69
:1078B800C42B3ED7000E0001CA6F000E0001C96F2D
:1078C8000001CA51800A800F030ED8B4C95DD8B030
:1078D800A5D0000E0001CC6F000E0001CB6F000197
:1078E800CC51800A800F030ED8B4CB5DD8B092D0AB
:1078F800000E0001CE6F000E0001CD6F0001CE51C9
:10790800800A800F030ED8B4CD5DD8B07FD0C9C02F
:1079180001F0CAC002F0000E046E1B0E036E58EC94
:107928002CF0000E456E010E466E015045260250A1
:107938004622CBC001F0CCC002F0000E046E090E46
:10794800036E58EC2CF00150452602504622CDC05B
:1079580001F0CEC002F0000E046E030E036E58EC68
:107968002CF001504524D96E02504620DA6EE5C04D
:1079780009F0E6C00AF004EC2DF009C039F00AC09D
:107988003AF00BC03BF0C9C001F0CAC002F0000ECB
:10799800046E1B0E036E58EC2CF0510E476E010E50
:1079A800486E0150472602504822CBC001F0CCC097
:1079B80002F0000E046E090E036E58EC2CF0015014
:1079C800472602504822CDC001F0CEC002F0000E7A
:1079D800046E030E036E58EC2CF001504724E16E40
:1079E80002504820E26EE6CF3CF0E6CF3DF0E5CF0E
:1079F8003EF0C5EC2FF039C0DEFF3AC0DEFF3BC0D9
:107A0800DDFFDD520001CD4BCE2B78D70001CB4BEB
:107A1800CC2B65D70001C94BCA2B52D7000E0001E9
:107A2800D66F000E0001D56F0001D651800A800F75
:107A3800030ED8B4D55DD8B0F0D0000E0001D86FD1
:107A4800000E0001D76F0001D851800A800F030E85
:107A5800D8B4D75DD8B0DDD0000E0001DA6F000EC3
:107A68000001D96F0001DA51800A800F030ED8B4E3
:107A7800D95DD8B0CAD0D5C001F0D6C002F0000E8A
:107A8800046E1B0E036E58EC2CF0A20E456E010E10
:107A9800466E0150452602504622D7C001F0D8C094
:107AA80002F0000E046E090E036E58EC2CF0015023
:107AB800452602504622D9C001F0DAC002F0000E75
:107AC800046E030E036E58EC2CF001504524D96E59
:107AD80002504620DA6EDECF0FF0DECF10F0DDCF99
:107AE80011F0D5C001F0D6C002F0000E046E1B0ED6
:107AF800036E58EC2CF0000E476E010E486E0150D4
:107B0800472602504822D7C001F0D8C002F0000E24
:107B1800046E090E036E58EC2CF0015047260250F3
:107B28004822D9C001F0DAC002F0000E046E030E3C
:107B3800036E58EC2CF001504724D96E02504820AF
:107B4800DA6EDECF0CF0DECF0DF0DDCF0EF041ECBB
:107B580031F00CC02DF00DC02EF00EC02FF0CFC0AC
:107B680030F0D0C031F0D1C032F008EC36F02DC082
:107B7800CFF02EC0D0F02FC0D1F0D5C001F0D6C0C4
:107B880002F0000E046E1B0E036E58EC2CF0000E73
:107B9800456E010E466E0150452602504622D7C05A
:107BA80001F0D8C002F0000E046E090E036E58EC06
:107BB8002CF00150452602504622D9C001F0DAC007
:107BC80002F0000E046E030E036E58EC2CF0015008
:107BD8004524D96E02504620DA6EDECF2DF0DECF76
:107BE8002EF0DDCF2FF0D2C030F0D3C031F0D4C0AA
:107BF80032F008EC36F02DC0D2F02EC0D3F02FC0F2
:107C0800D4F00001D94BDA2B2DD70001D74BD82B54
:107C18001AD70001D54BD62B07D7CFC01BF0D0C041
:107C28001CF0D1C01DF0D2C01EF0D3C01FF0D4C0CC
:107C380020F0D6EC30F01BC07BF01CC07CF01DC0DF
:107C48007DF07BC001F07CC002F07DC003F06CECDD
:107C580030F001C045F002C046F003C047F004C050
:107C680048F045C0BFF046C0C0F0BFC009F0C0C072
:107C78000AF004EC2DF009C02AF00AC02BF00BC062
:107C88002CF045EC2CF02AC02DF02BC02EF02CC087
:107C98002FF07BC030F07CC031F07DC032F008ECB2
:107CA80036F02DC0B6F02EC0B7F02FC0B8F0B6C071
:107CB80001F0B7C002F0B8C003F0000E046E000E69
:107CC800056E3F0E066EE2EC2EF0D8A010D0010E25
:107CD8000001BF25096E000E0001C0210A6E04ECE8
:107CE8002DF009C07BF00AC07CF00BC07DF0000EBF
:107CF8000001CF6F000E0001D06F000E0001D16FA0
:107D0800B70E0001D26FD10E0001D36F380E0001FB
:107D1800D46F000E0001BC6F000E0001BD6F000E95
:107D28000001BE6F000E0001DC6F000E0001DB6F6A
:107D38000001DC51800A800F030ED8B4DB5DD8B097
:107D4800F0D0000E0001DE6F000E0001DD6F0001B3
:107D5800DE51800A800F030ED8B4DD5DD8B0DDD0C7
:107D6800000E0001E06F000E0001DF6F0001E0511E
:107D7800800A800F030ED8B4DF5DD8B0CAD0DBC04C
:107D880001F0DCC002F0000E046E1B0E036E58EC0E
:107D98002CF0000E456E020E466E0150452602502C
:107DA8004622DDC001F0DEC002F0000E046E090EAE
:107DB800036E58EC2CF00150452602504622DFC0D5
:107DC80001F0E0C002F0000E046E030E036E58ECE2
:107DD8002CF001504524D96E02504620DA6EDECFD1
:107DE8000FF0DECF10F0DDCF11F0DBC001F0DCC00A
:107DF80002F0000E046E1B0E036E58EC2CF0000E01
:107E0800476E010E486E0150472602504822DDC0D9
:107E180001F0DEC002F0000E046E090E036E58EC8D
:107E28002CF00150472602504822DFC001F0E0C084
:107E380002F0000E046E030E036E58EC2CF0015095
:107E48004724D96E02504820DA6EDECF0CF0DECF20
:107E58000DF0DDCF0EF041EC31F00CC02DF00DC06F
:107E68002EF00EC02FF0CFC030F0D0C031F0D1C00E
:107E780032F008EC36F02DC0CFF02EC0D0F02FC075
:107E8800D1F0DBC001F0DCC002F0000E046E1B0E66
:107E9800036E58EC2CF0000E456E010E466E015034
:107EA800452602504622DDC001F0DEC002F0000E79
:107EB800046E090E036E58EC2CF001504526025052
:107EC8004622DFC001F0E0C002F0000E046E030E8F
:107ED800036E58EC2CF001504524D96E0250462010
:107EE800DA6EDECF2DF0DECF2EF0DDCF2FF0D2C050
:107EF80030F0D3C031F0D4C032F008EC36F02DC0E9
:107F0800D2F02EC0D3F02FC0D4F00001DF4BE02B0D
:107F18002DD70001DD4BDE2B1AD70001DB4BDC2B04
:107F280007D7CFC01BF0D0C01CF0D1C01DF0D2C005
:107F38001EF0D3C01FF0D4C020F0D6EC30F01BC028
:107F48007EF01CC07FF01DC080F07EC001F07FC0B5
:107F580002F080C003F06CEC30F001C045F002C0C4
:107F680046F003C047F004C048F045C0C1F046C021
:107F7800C2F0C1C009F0C2C00AF004EC2DF009C07B
:107F88002AF00AC02BF00BC02CF045EC2CF02AC0CC
:107F98002DF02BC02EF02CC02FF07EC030F07FC00B
:107FA80031F080C032F008EC36F02DC0B9F02EC0A8
:107FB800BAF02FC0BBF0B9C001F0BAC002F0BBC024
:107FC80003F0000E046E000E056E3F0E066EE2EC26
:107FD8002EF0D8A010D0010E0001C125096E000EA8
:107FE8000001C2210A6E04EC2DF009C07EF00AC01F
:087FF8007FF00BC080F01200C5
:020000040020DA
:08000000FFFFFFFFFFFFFFFF00
:020000040030CA
:0E000000000C191EFF8181FF0FC00FE00F40A2
:00000001FF
